{
  "_format": "hh-sol-artifact-1",
  "contractName": "Staking",
  "sourceName": "contracts/Staking.sol",
  "abi": [
    {
      "inputs": [
        {
          "internalType": "string",
          "name": "_name",
          "type": "string"
        },
        {
          "internalType": "string",
          "name": "_symbol",
          "type": "string"
        },
        {
          "internalType": "uint256",
          "name": "_initialSupply",
          "type": "uint256"
        },
        {
          "internalType": "uint256",
          "name": "_rewardRate",
          "type": "uint256"
        }
      ],
      "stateMutability": "nonpayable",
      "type": "constructor"
    },
    {
      "anonymous": false,
      "inputs": [
        {
          "indexed": true,
          "internalType": "address",
          "name": "owner",
          "type": "address"
        },
        {
          "indexed": true,
          "internalType": "address",
          "name": "spender",
          "type": "address"
        },
        {
          "indexed": false,
          "internalType": "uint256",
          "name": "value",
          "type": "uint256"
        }
      ],
      "name": "Approval",
      "type": "event"
    },
    {
      "anonymous": false,
      "inputs": [
        {
          "indexed": true,
          "internalType": "address",
          "name": "from",
          "type": "address"
        },
        {
          "indexed": true,
          "internalType": "address",
          "name": "to",
          "type": "address"
        },
        {
          "indexed": false,
          "internalType": "uint256",
          "name": "value",
          "type": "uint256"
        }
      ],
      "name": "Transfer",
      "type": "event"
    },
    {
      "anonymous": false,
      "inputs": [
        {
          "indexed": false,
          "internalType": "uint256",
          "name": "totalStakedAmount",
          "type": "uint256"
        }
      ],
      "name": "UpdatedTotalStakedAmount",
      "type": "event"
    },
    {
      "anonymous": false,
      "inputs": [
        {
          "indexed": false,
          "internalType": "uint256",
          "name": "stakedAmount",
          "type": "uint256"
        },
        {
          "indexed": false,
          "internalType": "uint256",
          "name": "rewardAmount",
          "type": "uint256"
        },
        {
          "indexed": false,
          "internalType": "uint256",
          "name": "lastRewardUpdate",
          "type": "uint256"
        }
      ],
      "name": "UpdatedUserInfo",
      "type": "event"
    },
    {
      "inputs": [
        {
          "internalType": "address",
          "name": "owner",
          "type": "address"
        },
        {
          "internalType": "address",
          "name": "spender",
          "type": "address"
        }
      ],
      "name": "allowance",
      "outputs": [
        {
          "internalType": "uint256",
          "name": "",
          "type": "uint256"
        }
      ],
      "stateMutability": "view",
      "type": "function"
    },
    {
      "inputs": [
        {
          "internalType": "address",
          "name": "spender",
          "type": "address"
        },
        {
          "internalType": "uint256",
          "name": "amount",
          "type": "uint256"
        }
      ],
      "name": "approve",
      "outputs": [
        {
          "internalType": "bool",
          "name": "",
          "type": "bool"
        }
      ],
      "stateMutability": "nonpayable",
      "type": "function"
    },
    {
      "inputs": [
        {
          "internalType": "address",
          "name": "account",
          "type": "address"
        }
      ],
      "name": "balanceOf",
      "outputs": [
        {
          "internalType": "uint256",
          "name": "",
          "type": "uint256"
        }
      ],
      "stateMutability": "view",
      "type": "function"
    },
    {
      "inputs": [
        {
          "internalType": "address",
          "name": "_user",
          "type": "address"
        }
      ],
      "name": "computeReward",
      "outputs": [
        {
          "internalType": "uint256",
          "name": "",
          "type": "uint256"
        }
      ],
      "stateMutability": "view",
      "type": "function"
    },
    {
      "inputs": [],
      "name": "decimals",
      "outputs": [
        {
          "internalType": "uint8",
          "name": "",
          "type": "uint8"
        }
      ],
      "stateMutability": "view",
      "type": "function"
    },
    {
      "inputs": [
        {
          "internalType": "address",
          "name": "spender",
          "type": "address"
        },
        {
          "internalType": "uint256",
          "name": "subtractedValue",
          "type": "uint256"
        }
      ],
      "name": "decreaseAllowance",
      "outputs": [
        {
          "internalType": "bool",
          "name": "",
          "type": "bool"
        }
      ],
      "stateMutability": "nonpayable",
      "type": "function"
    },
    {
      "inputs": [
        {
          "internalType": "address",
          "name": "spender",
          "type": "address"
        },
        {
          "internalType": "uint256",
          "name": "addedValue",
          "type": "uint256"
        }
      ],
      "name": "increaseAllowance",
      "outputs": [
        {
          "internalType": "bool",
          "name": "",
          "type": "bool"
        }
      ],
      "stateMutability": "nonpayable",
      "type": "function"
    },
    {
      "inputs": [],
      "name": "name",
      "outputs": [
        {
          "internalType": "string",
          "name": "",
          "type": "string"
        }
      ],
      "stateMutability": "view",
      "type": "function"
    },
    {
      "inputs": [],
      "name": "reinvestReward",
      "outputs": [],
      "stateMutability": "nonpayable",
      "type": "function"
    },
    {
      "inputs": [],
      "name": "rewardRate",
      "outputs": [
        {
          "internalType": "uint256",
          "name": "",
          "type": "uint256"
        }
      ],
      "stateMutability": "view",
      "type": "function"
    },
    {
      "inputs": [
        {
          "internalType": "uint256",
          "name": "_amount",
          "type": "uint256"
        }
      ],
      "name": "stake",
      "outputs": [],
      "stateMutability": "nonpayable",
      "type": "function"
    },
    {
      "inputs": [],
      "name": "symbol",
      "outputs": [
        {
          "internalType": "string",
          "name": "",
          "type": "string"
        }
      ],
      "stateMutability": "view",
      "type": "function"
    },
    {
      "inputs": [],
      "name": "totalLoanedAmount",
      "outputs": [
        {
          "internalType": "uint256",
          "name": "",
          "type": "uint256"
        }
      ],
      "stateMutability": "view",
      "type": "function"
    },
    {
      "inputs": [],
      "name": "totalStakedAmount",
      "outputs": [
        {
          "internalType": "uint256",
          "name": "",
          "type": "uint256"
        }
      ],
      "stateMutability": "view",
      "type": "function"
    },
    {
      "inputs": [],
      "name": "totalSupply",
      "outputs": [
        {
          "internalType": "uint256",
          "name": "",
          "type": "uint256"
        }
      ],
      "stateMutability": "view",
      "type": "function"
    },
    {
      "inputs": [
        {
          "internalType": "address",
          "name": "to",
          "type": "address"
        },
        {
          "internalType": "uint256",
          "name": "amount",
          "type": "uint256"
        }
      ],
      "name": "transfer",
      "outputs": [
        {
          "internalType": "bool",
          "name": "",
          "type": "bool"
        }
      ],
      "stateMutability": "nonpayable",
      "type": "function"
    },
    {
      "inputs": [
        {
          "internalType": "address",
          "name": "from",
          "type": "address"
        },
        {
          "internalType": "address",
          "name": "to",
          "type": "address"
        },
        {
          "internalType": "uint256",
          "name": "amount",
          "type": "uint256"
        }
      ],
      "name": "transferFrom",
      "outputs": [
        {
          "internalType": "bool",
          "name": "",
          "type": "bool"
        }
      ],
      "stateMutability": "nonpayable",
      "type": "function"
    },
    {
      "inputs": [
        {
          "internalType": "uint256",
          "name": "_amount",
          "type": "uint256"
        }
      ],
      "name": "unstake",
      "outputs": [],
      "stateMutability": "nonpayable",
      "type": "function"
    },
    {
      "inputs": [
        {
          "internalType": "address",
          "name": "",
          "type": "address"
        }
      ],
      "name": "users",
      "outputs": [
        {
          "internalType": "uint256",
          "name": "stakedAmount",
          "type": "uint256"
        },
        {
          "internalType": "uint256",
          "name": "rewardAmount",
          "type": "uint256"
        },
        {
          "internalType": "uint256",
          "name": "lastRewardUpdate",
          "type": "uint256"
        }
      ],
      "stateMutability": "view",
      "type": "function"
    },
    {
      "inputs": [],
      "name": "withdrawReward",
      "outputs": [],
      "stateMutability": "nonpayable",
      "type": "function"
    }
  ],
  "bytecode": "0x60806040523480156200001157600080fd5b50604051620035233803806200352383398181016040528101906200003791906200037e565b838383828281600390805190602001906200005492919062000245565b5080600490805190602001906200006d92919062000245565b505050620000a662000084620000ba60201b60201c565b670de0b6b3a7640000836200009a919062000560565b620000c260201b60201c565b50505080600881905550505050506200074e565b600033905090565b600073ffffffffffffffffffffffffffffffffffffffff168273ffffffffffffffffffffffffffffffffffffffff16141562000135576040517f08c379a00000000000000000000000000000000000000000000000000000000081526004016200012c9062000454565b60405180910390fd5b62000149600083836200023b60201b60201c565b80600260008282546200015d919062000503565b92505081905550806000808473ffffffffffffffffffffffffffffffffffffffff1673ffffffffffffffffffffffffffffffffffffffff1681526020019081526020016000206000828254620001b4919062000503565b925050819055508173ffffffffffffffffffffffffffffffffffffffff16600073ffffffffffffffffffffffffffffffffffffffff167fddf252ad1be2c89b69c2b068fc378daa952ba7f163c4a11628f55a4df523b3ef836040516200021b919062000476565b60405180910390a362000237600083836200024060201b60201c565b5050565b505050565b505050565b828054620002539062000601565b90600052602060002090601f016020900481019282620002775760008555620002c3565b82601f106200029257805160ff1916838001178555620002c3565b82800160010185558215620002c3579182015b82811115620002c2578251825591602001919060010190620002a5565b5b509050620002d29190620002d6565b5090565b5b80821115620002f1576000816000905550600101620002d7565b5090565b60006200030c6200030684620004bc565b62000493565b9050828152602081018484840111156200032557600080fd5b62000332848285620005cb565b509392505050565b600082601f8301126200034c57600080fd5b81516200035e848260208601620002f5565b91505092915050565b600081519050620003788162000734565b92915050565b600080600080608085870312156200039557600080fd5b600085015167ffffffffffffffff811115620003b057600080fd5b620003be878288016200033a565b945050602085015167ffffffffffffffff811115620003dc57600080fd5b620003ea878288016200033a565b9350506040620003fd8782880162000367565b9250506060620004108782880162000367565b91505092959194509250565b60006200042b601f83620004f2565b915062000438826200070b565b602082019050919050565b6200044e81620005c1565b82525050565b600060208201905081810360008301526200046f816200041c565b9050919050565b60006020820190506200048d600083018462000443565b92915050565b60006200049f620004b2565b9050620004ad828262000637565b919050565b6000604051905090565b600067ffffffffffffffff821115620004da57620004d9620006cb565b5b620004e582620006fa565b9050602081019050919050565b600082825260208201905092915050565b60006200051082620005c1565b91506200051d83620005c1565b9250827fffffffffffffffffffffffffffffffffffffffffffffffffffffffffffffffff038211156200055557620005546200066d565b5b828201905092915050565b60006200056d82620005c1565b91506200057a83620005c1565b9250817fffffffffffffffffffffffffffffffffffffffffffffffffffffffffffffffff0483118215151615620005b657620005b56200066d565b5b828202905092915050565b6000819050919050565b60005b83811015620005eb578082015181840152602081019050620005ce565b83811115620005fb576000848401525b50505050565b600060028204905060018216806200061a57607f821691505b602082108114156200063157620006306200069c565b5b50919050565b6200064282620006fa565b810181811067ffffffffffffffff82111715620006645762000663620006cb565b5b80604052505050565b7f4e487b7100000000000000000000000000000000000000000000000000000000600052601160045260246000fd5b7f4e487b7100000000000000000000000000000000000000000000000000000000600052602260045260246000fd5b7f4e487b7100000000000000000000000000000000000000000000000000000000600052604160045260246000fd5b6000601f19601f8301169050919050565b7f45524332303a206d696e7420746f20746865207a65726f206164647265737300600082015250565b6200073f81620005c1565b81146200074b57600080fd5b50565b612dc5806200075e6000396000f3fe608060405234801561001057600080fd5b506004361061012c5760003560e01c80637b0a47ee116100ad578063a87430ba11610071578063a87430ba14610335578063a9059cbb14610367578063c885bc5814610397578063dd62ed3e146103a1578063ea515c2b146103d15761012c565b80637b0a47ee1461028f578063819bd33c146102ad57806395d89b41146102cb578063a457c2d7146102e9578063a694fc3a146103195761012c565b80632e17de78116100f45780632e17de78146101d7578063313ce567146101f35780633950935114610211578063567e98f91461024157806370a082311461025f5761012c565b806306fdde0314610131578063095ea7b31461014f57806318160ddd1461017f57806323b872dd1461019d57806324f7b2a7146101cd575b600080fd5b610139610401565b6040516101469190612336565b60405180910390f35b61016960048036038101906101649190611ffd565b610493565b604051610176919061231b565b60405180910390f35b6101876104b6565b6040516101949190612578565b60405180910390f35b6101b760048036038101906101b29190611fae565b6104c0565b6040516101c4919061231b565b60405180910390f35b6101d56104ef565b005b6101f160048036038101906101ec9190612039565b610896565b005b6101fb610ca9565b60405161020891906125ca565b60405180910390f35b61022b60048036038101906102269190611ffd565b610cb2565b604051610238919061231b565b60405180910390f35b610249610d5c565b6040516102569190612578565b60405180910390f35b61027960048036038101906102749190611f49565b610d62565b6040516102869190612578565b60405180910390f35b610297610daa565b6040516102a49190612578565b60405180910390f35b6102b5610db0565b6040516102c29190612578565b60405180910390f35b6102d3610db6565b6040516102e09190612336565b60405180910390f35b61030360048036038101906102fe9190611ffd565b610e48565b604051610310919061231b565b60405180910390f35b610333600480360381019061032e9190612039565b610f32565b005b61034f600480360381019061034a9190611f49565b61126c565b60405161035e93929190612593565b60405180910390f35b610381600480360381019061037c9190611ffd565b611296565b60405161038e919061231b565b60405180910390f35b61039f6112b9565b005b6103bb60048036038101906103b69190611f72565b611535565b6040516103c89190612578565b60405180910390f35b6103eb60048036038101906103e69190611f49565b6115bc565b6040516103f89190612578565b60405180910390f35b6060600380546104109061279e565b80601f016020809104026020016040519081016040528092919081815260200182805461043c9061279e565b80156104895780601f1061045e57610100808354040283529160200191610489565b820191906000526020600020905b81548152906001019060200180831161046c57829003601f168201915b5050505050905090565b60008061049e6116fe565b90506104ab818585611706565b600191505092915050565b6000600254905090565b6000806104cb6116fe565b90506104d88582856118d1565b6104e385858561195d565b60019150509392505050565b6000600560003373ffffffffffffffffffffffffffffffffffffffff1673ffffffffffffffffffffffffffffffffffffffff1681526020019081526020016000206000015411610574576040517f08c379a000000000000000000000000000000000000000000000000000000000815260040161056b90612438565b60405180910390fd5b61057d336115bc565b600560003373ffffffffffffffffffffffffffffffffffffffff1673ffffffffffffffffffffffffffffffffffffffff16815260200190815260200160002060010160008282546105ce9190612601565b92505081905550600560003373ffffffffffffffffffffffffffffffffffffffff1673ffffffffffffffffffffffffffffffffffffffff16815260200190815260200160002060010154600660008282546106299190612601565b92505081905550600560003373ffffffffffffffffffffffffffffffffffffffff1673ffffffffffffffffffffffffffffffffffffffff16815260200190815260200160002060010154600560003373ffffffffffffffffffffffffffffffffffffffff1673ffffffffffffffffffffffffffffffffffffffff16815260200190815260200160002060000160008282546106c49190612601565b925050819055506000600560003373ffffffffffffffffffffffffffffffffffffffff1673ffffffffffffffffffffffffffffffffffffffff1681526020019081526020016000206001018190555042600560003373ffffffffffffffffffffffffffffffffffffffff1673ffffffffffffffffffffffffffffffffffffffff168152602001908152602001600020600201819055507f45eda134a6fea0b80300b9a291fe0366b81e0625e11d3fa836a8d151ebf4f1ac60065460405161078b9190612578565b60405180910390a17f928395724f51441ff62819fcb6e6a30326cc4cd4a14a79023cc4a31cde08d918600560003373ffffffffffffffffffffffffffffffffffffffff1673ffffffffffffffffffffffffffffffffffffffff16815260200190815260200160002060000154600560003373ffffffffffffffffffffffffffffffffffffffff1673ffffffffffffffffffffffffffffffffffffffff16815260200190815260200160002060010154600560003373ffffffffffffffffffffffffffffffffffffffff1673ffffffffffffffffffffffffffffffffffffffff1681526020019081526020016000206002015460405161088c93929190612593565b60405180910390a1565b600081116108d9576040517f08c379a00000000000000000000000000000000000000000000000000000000081526004016108d0906124d8565b60405180910390fd5b600560003373ffffffffffffffffffffffffffffffffffffffff1673ffffffffffffffffffffffffffffffffffffffff1681526020019081526020016000206000015481111561095e576040517f08c379a000000000000000000000000000000000000000000000000000000000815260040161095590612538565b60405180910390fd5b610967336115bc565b600560003373ffffffffffffffffffffffffffffffffffffffff1673ffffffffffffffffffffffffffffffffffffffff16815260200190815260200160002060010160008282546109b89190612601565b9250508190555042600560003373ffffffffffffffffffffffffffffffffffffffff1673ffffffffffffffffffffffffffffffffffffffff168152602001908152602001600020600201819055508060066000828254610a1891906126e2565b9250508190555080600560003373ffffffffffffffffffffffffffffffffffffffff1673ffffffffffffffffffffffffffffffffffffffff1681526020019081526020016000206000016000828254610a7191906126e2565b9250508190555060008190506000600560003373ffffffffffffffffffffffffffffffffffffffff1673ffffffffffffffffffffffffffffffffffffffff168152602001908152602001600020600001541415610b6157600560003373ffffffffffffffffffffffffffffffffffffffff1673ffffffffffffffffffffffffffffffffffffffff1681526020019081526020016000206001015481610b169190612601565b90506000600560003373ffffffffffffffffffffffffffffffffffffffff1673ffffffffffffffffffffffffffffffffffffffff168152602001908152602001600020600101819055505b610b6b3382611bde565b7f45eda134a6fea0b80300b9a291fe0366b81e0625e11d3fa836a8d151ebf4f1ac600654604051610b9c9190612578565b60405180910390a17f928395724f51441ff62819fcb6e6a30326cc4cd4a14a79023cc4a31cde08d918600560003373ffffffffffffffffffffffffffffffffffffffff1673ffffffffffffffffffffffffffffffffffffffff16815260200190815260200160002060000154600560003373ffffffffffffffffffffffffffffffffffffffff1673ffffffffffffffffffffffffffffffffffffffff16815260200190815260200160002060010154600560003373ffffffffffffffffffffffffffffffffffffffff1673ffffffffffffffffffffffffffffffffffffffff16815260200190815260200160002060020154604051610c9d93929190612593565b60405180910390a15050565b60006012905090565b600080610cbd6116fe565b9050610d51818585600160008673ffffffffffffffffffffffffffffffffffffffff1673ffffffffffffffffffffffffffffffffffffffff16815260200190815260200160002060008973ffffffffffffffffffffffffffffffffffffffff1673ffffffffffffffffffffffffffffffffffffffff16815260200190815260200160002054610d4c9190612601565b611706565b600191505092915050565b60065481565b60008060008373ffffffffffffffffffffffffffffffffffffffff1673ffffffffffffffffffffffffffffffffffffffff168152602001908152602001600020549050919050565b60085481565b60075481565b606060048054610dc59061279e565b80601f0160208091040260200160405190810160405280929190818152602001828054610df19061279e565b8015610e3e5780601f10610e1357610100808354040283529160200191610e3e565b820191906000526020600020905b815481529060010190602001808311610e2157829003601f168201915b5050505050905090565b600080610e536116fe565b90506000600160008373ffffffffffffffffffffffffffffffffffffffff1673ffffffffffffffffffffffffffffffffffffffff16815260200190815260200160002060008673ffffffffffffffffffffffffffffffffffffffff1673ffffffffffffffffffffffffffffffffffffffff16815260200190815260200160002054905083811015610f19576040517f08c379a0000000000000000000000000000000000000000000000000000000008152600401610f1090612518565b60405180910390fd5b610f268286868403611706565b60019250505092915050565b60008111610f75576040517f08c379a0000000000000000000000000000000000000000000000000000000008152600401610f6c90612458565b60405180910390fd5b610f7e33610d62565b811115610fc0576040517f08c379a0000000000000000000000000000000000000000000000000000000008152600401610fb7906123f8565b60405180910390fd5b6000600560003373ffffffffffffffffffffffffffffffffffffffff1673ffffffffffffffffffffffffffffffffffffffff168152602001908152602001600020600001541461106c57611013336115bc565b600560003373ffffffffffffffffffffffffffffffffffffffff1673ffffffffffffffffffffffffffffffffffffffff16815260200190815260200160002060010160008282546110649190612601565b925050819055505b806006600082825461107e9190612601565b9250508190555080600560003373ffffffffffffffffffffffffffffffffffffffff1673ffffffffffffffffffffffffffffffffffffffff16815260200190815260200160002060000160008282546110d79190612601565b9250508190555042600560003373ffffffffffffffffffffffffffffffffffffffff1673ffffffffffffffffffffffffffffffffffffffff1681526020019081526020016000206002018190555061112f3382611d3e565b7f45eda134a6fea0b80300b9a291fe0366b81e0625e11d3fa836a8d151ebf4f1ac6006546040516111609190612578565b60405180910390a17f928395724f51441ff62819fcb6e6a30326cc4cd4a14a79023cc4a31cde08d918600560003373ffffffffffffffffffffffffffffffffffffffff1673ffffffffffffffffffffffffffffffffffffffff16815260200190815260200160002060000154600560003373ffffffffffffffffffffffffffffffffffffffff1673ffffffffffffffffffffffffffffffffffffffff16815260200190815260200160002060010154600560003373ffffffffffffffffffffffffffffffffffffffff1673ffffffffffffffffffffffffffffffffffffffff1681526020019081526020016000206002015460405161126193929190612593565b60405180910390a150565b60056020528060005260406000206000915090508060000154908060010154908060020154905083565b6000806112a16116fe565b90506112ae81858561195d565b600191505092915050565b6000600560003373ffffffffffffffffffffffffffffffffffffffff1673ffffffffffffffffffffffffffffffffffffffff168152602001908152602001600020600001541161133e576040517f08c379a000000000000000000000000000000000000000000000000000000000815260040161133590612498565b60405180910390fd5b6000611349336115bc565b600560003373ffffffffffffffffffffffffffffffffffffffff1673ffffffffffffffffffffffffffffffffffffffff168152602001908152602001600020600101546113969190612601565b905042600560003373ffffffffffffffffffffffffffffffffffffffff1673ffffffffffffffffffffffffffffffffffffffff168152602001908152602001600020600201819055506113e93382611bde565b6000600560003373ffffffffffffffffffffffffffffffffffffffff1673ffffffffffffffffffffffffffffffffffffffff168152602001908152602001600020600101819055507f928395724f51441ff62819fcb6e6a30326cc4cd4a14a79023cc4a31cde08d918600560003373ffffffffffffffffffffffffffffffffffffffff1673ffffffffffffffffffffffffffffffffffffffff16815260200190815260200160002060000154600560003373ffffffffffffffffffffffffffffffffffffffff1673ffffffffffffffffffffffffffffffffffffffff16815260200190815260200160002060010154600560003373ffffffffffffffffffffffffffffffffffffffff1673ffffffffffffffffffffffffffffffffffffffff1681526020019081526020016000206002015460405161152a93929190612593565b60405180910390a150565b6000600160008473ffffffffffffffffffffffffffffffffffffffff1673ffffffffffffffffffffffffffffffffffffffff16815260200190815260200160002060008373ffffffffffffffffffffffffffffffffffffffff1673ffffffffffffffffffffffffffffffffffffffff16815260200190815260200160002054905092915050565b600080600560008473ffffffffffffffffffffffffffffffffffffffff1673ffffffffffffffffffffffffffffffffffffffff1681526020019081526020016000206000015411611642576040517f08c379a000000000000000000000000000000000000000000000000000000000815260040161163990612418565b60405180910390fd5b600654600854600560008573ffffffffffffffffffffffffffffffffffffffff1673ffffffffffffffffffffffffffffffffffffffff16815260200190815260200160002060000154600560008673ffffffffffffffffffffffffffffffffffffffff1673ffffffffffffffffffffffffffffffffffffffff16815260200190815260200160002060020154426116d991906126e2565b6116e39190612688565b6116ed9190612688565b6116f79190612657565b9050919050565b600033905090565b600073ffffffffffffffffffffffffffffffffffffffff168373ffffffffffffffffffffffffffffffffffffffff161415611776576040517f08c379a000000000000000000000000000000000000000000000000000000000815260040161176d906124f8565b60405180910390fd5b600073ffffffffffffffffffffffffffffffffffffffff168273ffffffffffffffffffffffffffffffffffffffff1614156117e6576040517f08c379a00000000000000000000000000000000000000000000000000000000081526004016117dd90612398565b60405180910390fd5b80600160008573ffffffffffffffffffffffffffffffffffffffff1673ffffffffffffffffffffffffffffffffffffffff16815260200190815260200160002060008473ffffffffffffffffffffffffffffffffffffffff1673ffffffffffffffffffffffffffffffffffffffff168152602001908152602001600020819055508173ffffffffffffffffffffffffffffffffffffffff168373ffffffffffffffffffffffffffffffffffffffff167f8c5be1e5ebec7d5bd14f71427d1e84f3dd0314c0f7b2291e5b200ac8c7c3b925836040516118c49190612578565b60405180910390a3505050565b60006118dd8484611535565b90507fffffffffffffffffffffffffffffffffffffffffffffffffffffffffffffffff81146119575781811015611949576040517f08c379a0000000000000000000000000000000000000000000000000000000008152600401611940906123b8565b60405180910390fd5b6119568484848403611706565b5b50505050565b600073ffffffffffffffffffffffffffffffffffffffff168373ffffffffffffffffffffffffffffffffffffffff1614156119cd576040517f08c379a00000000000000000000000000000000000000000000000000000000081526004016119c4906124b8565b60405180910390fd5b600073ffffffffffffffffffffffffffffffffffffffff168273ffffffffffffffffffffffffffffffffffffffff161415611a3d576040517f08c379a0000000000000000000000000000000000000000000000000000000008152600401611a3490612358565b60405180910390fd5b611a48838383611f15565b60008060008573ffffffffffffffffffffffffffffffffffffffff1673ffffffffffffffffffffffffffffffffffffffff16815260200190815260200160002054905081811015611ace576040517f08c379a0000000000000000000000000000000000000000000000000000000008152600401611ac5906123d8565b60405180910390fd5b8181036000808673ffffffffffffffffffffffffffffffffffffffff1673ffffffffffffffffffffffffffffffffffffffff16815260200190815260200160002081905550816000808573ffffffffffffffffffffffffffffffffffffffff1673ffffffffffffffffffffffffffffffffffffffff1681526020019081526020016000206000828254611b619190612601565b925050819055508273ffffffffffffffffffffffffffffffffffffffff168473ffffffffffffffffffffffffffffffffffffffff167fddf252ad1be2c89b69c2b068fc378daa952ba7f163c4a11628f55a4df523b3ef84604051611bc59190612578565b60405180910390a3611bd8848484611f1a565b50505050565b600073ffffffffffffffffffffffffffffffffffffffff168273ffffffffffffffffffffffffffffffffffffffff161415611c4e576040517f08c379a0000000000000000000000000000000000000000000000000000000008152600401611c4590612558565b60405180910390fd5b611c5a60008383611f15565b8060026000828254611c6c9190612601565b92505081905550806000808473ffffffffffffffffffffffffffffffffffffffff1673ffffffffffffffffffffffffffffffffffffffff1681526020019081526020016000206000828254611cc19190612601565b925050819055508173ffffffffffffffffffffffffffffffffffffffff16600073ffffffffffffffffffffffffffffffffffffffff167fddf252ad1be2c89b69c2b068fc378daa952ba7f163c4a11628f55a4df523b3ef83604051611d269190612578565b60405180910390a3611d3a60008383611f1a565b5050565b600073ffffffffffffffffffffffffffffffffffffffff168273ffffffffffffffffffffffffffffffffffffffff161415611dae576040517f08c379a0000000000000000000000000000000000000000000000000000000008152600401611da590612478565b60405180910390fd5b611dba82600083611f15565b60008060008473ffffffffffffffffffffffffffffffffffffffff1673ffffffffffffffffffffffffffffffffffffffff16815260200190815260200160002054905081811015611e40576040517f08c379a0000000000000000000000000000000000000000000000000000000008152600401611e3790612378565b60405180910390fd5b8181036000808573ffffffffffffffffffffffffffffffffffffffff1673ffffffffffffffffffffffffffffffffffffffff168152602001908152602001600020819055508160026000828254611e9791906126e2565b92505081905550600073ffffffffffffffffffffffffffffffffffffffff168373ffffffffffffffffffffffffffffffffffffffff167fddf252ad1be2c89b69c2b068fc378daa952ba7f163c4a11628f55a4df523b3ef84604051611efc9190612578565b60405180910390a3611f1083600084611f1a565b505050565b505050565b505050565b600081359050611f2e81612d61565b92915050565b600081359050611f4381612d78565b92915050565b600060208284031215611f5b57600080fd5b6000611f6984828501611f1f565b91505092915050565b60008060408385031215611f8557600080fd5b6000611f9385828601611f1f565b9250506020611fa485828601611f1f565b9150509250929050565b600080600060608486031215611fc357600080fd5b6000611fd186828701611f1f565b9350506020611fe286828701611f1f565b9250506040611ff386828701611f34565b9150509250925092565b6000806040838503121561201057600080fd5b600061201e85828601611f1f565b925050602061202f85828601611f34565b9150509250929050565b60006020828403121561204b57600080fd5b600061205984828501611f34565b91505092915050565b61206b81612728565b82525050565b600061207c826125e5565b61208681856125f0565b935061209681856020860161276b565b61209f8161285d565b840191505092915050565b60006120b76023836125f0565b91506120c28261286e565b604082019050919050565b60006120da6022836125f0565b91506120e5826128bd565b604082019050919050565b60006120fd6022836125f0565b91506121088261290c565b604082019050919050565b6000612120601d836125f0565b915061212b8261295b565b602082019050919050565b60006121436026836125f0565b915061214e82612984565b604082019050919050565b60006121666027836125f0565b9150612171826129d3565b604082019050919050565b6000612189602c836125f0565b915061219482612a22565b604082019050919050565b60006121ac602d836125f0565b91506121b782612a71565b604082019050919050565b60006121cf602e836125f0565b91506121da82612ac0565b604082019050919050565b60006121f26021836125f0565b91506121fd82612b0f565b604082019050919050565b6000612215602d836125f0565b915061222082612b5e565b604082019050919050565b60006122386025836125f0565b915061224382612bad565b604082019050919050565b600061225b6030836125f0565b915061226682612bfc565b604082019050919050565b600061227e6024836125f0565b915061228982612c4b565b604082019050919050565b60006122a16025836125f0565b91506122ac82612c9a565b604082019050919050565b60006122c4602f836125f0565b91506122cf82612ce9565b604082019050919050565b60006122e7601f836125f0565b91506122f282612d38565b602082019050919050565b61230681612754565b82525050565b6123158161275e565b82525050565b60006020820190506123306000830184612062565b92915050565b600060208201905081810360008301526123508184612071565b905092915050565b60006020820190508181036000830152612371816120aa565b9050919050565b60006020820190508181036000830152612391816120cd565b9050919050565b600060208201905081810360008301526123b1816120f0565b9050919050565b600060208201905081810360008301526123d181612113565b9050919050565b600060208201905081810360008301526123f181612136565b9050919050565b6000602082019050818103600083015261241181612159565b9050919050565b600060208201905081810360008301526124318161217c565b9050919050565b600060208201905081810360008301526124518161219f565b9050919050565b60006020820190508181036000830152612471816121c2565b9050919050565b60006020820190508181036000830152612491816121e5565b9050919050565b600060208201905081810360008301526124b181612208565b9050919050565b600060208201905081810360008301526124d18161222b565b9050919050565b600060208201905081810360008301526124f18161224e565b9050919050565b6000602082019050818103600083015261251181612271565b9050919050565b6000602082019050818103600083015261253181612294565b9050919050565b60006020820190508181036000830152612551816122b7565b9050919050565b60006020820190508181036000830152612571816122da565b9050919050565b600060208201905061258d60008301846122fd565b92915050565b60006060820190506125a860008301866122fd565b6125b560208301856122fd565b6125c260408301846122fd565b949350505050565b60006020820190506125df600083018461230c565b92915050565b600081519050919050565b600082825260208201905092915050565b600061260c82612754565b915061261783612754565b9250827fffffffffffffffffffffffffffffffffffffffffffffffffffffffffffffffff0382111561264c5761264b6127d0565b5b828201905092915050565b600061266282612754565b915061266d83612754565b92508261267d5761267c6127ff565b5b828204905092915050565b600061269382612754565b915061269e83612754565b9250817fffffffffffffffffffffffffffffffffffffffffffffffffffffffffffffffff04831182151516156126d7576126d66127d0565b5b828202905092915050565b60006126ed82612754565b91506126f883612754565b92508282101561270b5761270a6127d0565b5b828203905092915050565b600061272182612734565b9050919050565b60008115159050919050565b600073ffffffffffffffffffffffffffffffffffffffff82169050919050565b6000819050919050565b600060ff82169050919050565b60005b8381101561278957808201518184015260208101905061276e565b83811115612798576000848401525b50505050565b600060028204905060018216806127b657607f821691505b602082108114156127ca576127c961282e565b5b50919050565b7f4e487b7100000000000000000000000000000000000000000000000000000000600052601160045260246000fd5b7f4e487b7100000000000000000000000000000000000000000000000000000000600052601260045260246000fd5b7f4e487b7100000000000000000000000000000000000000000000000000000000600052602260045260246000fd5b6000601f19601f8301169050919050565b7f45524332303a207472616e7366657220746f20746865207a65726f206164647260008201527f6573730000000000000000000000000000000000000000000000000000000000602082015250565b7f45524332303a206275726e20616d6f756e7420657863656564732062616c616e60008201527f6365000000000000000000000000000000000000000000000000000000000000602082015250565b7f45524332303a20617070726f766520746f20746865207a65726f20616464726560008201527f7373000000000000000000000000000000000000000000000000000000000000602082015250565b7f45524332303a20696e73756666696369656e7420616c6c6f77616e6365000000600082015250565b7f45524332303a207472616e7366657220616d6f756e742065786365656473206260008201527f616c616e63650000000000000000000000000000000000000000000000000000602082015250565b7f596f7520646f6e2774206861766520656e6f7567682062616c616e636520746f60008201527f207374616b652100000000000000000000000000000000000000000000000000602082015250565b7f55736572206d757374207374616b65206265666f726520636f6d707574696e6760008201527f2074686520726577617264210000000000000000000000000000000000000000602082015250565b7f596f75206d757374207374616b65206265666f7265207265696e76657374696e60008201527f6720746865207265776172642100000000000000000000000000000000000000602082015250565b7f416d6f756e7420746f206265207374616b6564206d757374206265206120706f60008201527f7a6974697665206e756d62657221000000000000000000000000000000000000602082015250565b7f45524332303a206275726e2066726f6d20746865207a65726f2061646472657360008201527f7300000000000000000000000000000000000000000000000000000000000000602082015250565b7f596f75206d757374207374616b65206265666f7265207769746864726177696e60008201527f6720746865207265776172642100000000000000000000000000000000000000602082015250565b7f45524332303a207472616e736665722066726f6d20746865207a65726f20616460008201527f6472657373000000000000000000000000000000000000000000000000000000602082015250565b7f416d6f756e7420746f20626520756e7374616b6564206d75737420626520612060008201527f706f7a6974697665206e756d6265722100000000000000000000000000000000602082015250565b7f45524332303a20617070726f76652066726f6d20746865207a65726f2061646460008201527f7265737300000000000000000000000000000000000000000000000000000000602082015250565b7f45524332303a2064656372656173656420616c6c6f77616e63652062656c6f7760008201527f207a65726f000000000000000000000000000000000000000000000000000000602082015250565b7f596f7520646f6e2774206861766520656e6f756768207374616b656420616d6f60008201527f756e7420746f20756e7374616b65210000000000000000000000000000000000602082015250565b7f45524332303a206d696e7420746f20746865207a65726f206164647265737300600082015250565b612d6a81612716565b8114612d7557600080fd5b50565b612d8181612754565b8114612d8c57600080fd5b5056fea2646970667358221220bcbac18751b61499a7f829ec60c6b02011234686325918aa3c91bb6d17d6d61164736f6c63430008040033",
  "linkReferences": {},
  "deployedLinkReferences": {}
}